{
  "contractName": "SimpleStorage",
  "abi": [
    {
      "constant": true,
      "inputs": [
        {
          "internalType": "uint256",
          "name": "",
          "type": "uint256"
        }
      ],
      "name": "crime",
      "outputs": [
        {
          "internalType": "uint256",
          "name": "crime_id",
          "type": "uint256"
        },
        {
          "internalType": "string",
          "name": "timestamp",
          "type": "string"
        },
        {
          "internalType": "string",
          "name": "offense_code",
          "type": "string"
        },
        {
          "internalType": "string",
          "name": "description",
          "type": "string"
        }
      ],
      "payable": false,
      "stateMutability": "view",
      "type": "function"
    },
    {
      "constant": false,
      "inputs": [
        {
          "internalType": "uint256",
          "name": "_crime_id",
          "type": "uint256"
        },
        {
          "internalType": "string",
          "name": "_timestamp",
          "type": "string"
        },
        {
          "internalType": "string",
          "name": "_offense_code",
          "type": "string"
        },
        {
          "internalType": "string",
          "name": "_description",
          "type": "string"
        }
      ],
      "name": "addCrimeReport",
      "outputs": [
        {
          "internalType": "uint256",
          "name": "",
          "type": "uint256"
        }
      ],
      "payable": false,
      "stateMutability": "nonpayable",
      "type": "function"
    },
    {
      "constant": true,
      "inputs": [],
      "name": "getCrimeCount",
      "outputs": [
        {
          "internalType": "uint256",
          "name": "",
          "type": "uint256"
        }
      ],
      "payable": false,
      "stateMutability": "view",
      "type": "function"
    },
    {
      "constant": true,
      "inputs": [
        {
          "internalType": "uint256",
          "name": "index",
          "type": "uint256"
        }
      ],
      "name": "getCrimeBlock",
      "outputs": [
        {
          "internalType": "uint256",
          "name": "",
          "type": "uint256"
        },
        {
          "internalType": "string",
          "name": "",
          "type": "string"
        },
        {
          "internalType": "string",
          "name": "",
          "type": "string"
        },
        {
          "internalType": "string",
          "name": "",
          "type": "string"
        }
      ],
      "payable": false,
      "stateMutability": "view",
      "type": "function"
    },
    {
      "constant": true,
      "inputs": [],
      "name": "getAllCrimeDetails",
      "outputs": [
        {
          "components": [
            {
              "internalType": "uint256",
              "name": "crime_id",
              "type": "uint256"
            },
            {
              "internalType": "string",
              "name": "timestamp",
              "type": "string"
            },
            {
              "internalType": "string",
              "name": "offense_code",
              "type": "string"
            },
            {
              "internalType": "string",
              "name": "description",
              "type": "string"
            }
          ],
          "internalType": "struct SimpleStorage.CrimeDetails[]",
          "name": "",
          "type": "tuple[]"
        }
      ],
      "payable": false,
      "stateMutability": "view",
      "type": "function"
    }
  ],
  "bytecode": "0x608060405234801561001057600080fd5b50611053806100206000396000f3fe608060405234801561001057600080fd5b50600436106100575760003560e01c80633cb4c1cb1461005c578063644f30de1461008f57806398231bc9146100ad578063e9a51a77146100dd578063fdb917ed14610110575b600080fd5b61007660048036036100719190810190610b4a565b61012e565b6040516100869493929190610e1e565b60405180910390f35b610097610391565b6040516100a49190610de1565b60405180910390f35b6100c760048036036100c29190810190610b73565b610630565b6040516100d49190610e03565b60405180910390f35b6100f760048036036100f29190810190610b4a565b610732565b6040516101079493929190610e78565b60405180910390f35b610118610937565b6040516101259190610e03565b60405180910390f35b600060608060606000858154811061014257fe5b9060005260206000209060040201600001546000868154811061016157fe5b90600052602060002090600402016001016000878154811061017f57fe5b90600052602060002090600402016002016000888154811061019d57fe5b9060005260206000209060040201600301828054600181600116156101000203166002900480601f0160208091040260200160405190810160405280929190818152602001828054600181600116156101000203166002900480156102435780601f1061021857610100808354040283529160200191610243565b820191906000526020600020905b81548152906001019060200180831161022657829003601f168201915b50505050509250818054600181600116156101000203166002900480601f0160208091040260200160405190810160405280929190818152602001828054600181600116156101000203166002900480156102df5780601f106102b4576101008083540402835291602001916102df565b820191906000526020600020905b8154815290600101906020018083116102c257829003601f168201915b50505050509150808054600181600116156101000203166002900480601f01602080910402602001604051908101604052809291908181526020018280546001816001161561010002031660029004801561037b5780601f106103505761010080835404028352916020019161037b565b820191906000526020600020905b81548152906001019060200180831161035e57829003601f168201915b5050505050905093509350935093509193509193565b6060806000805490506040519080825280602002602001820160405280156103d357816020015b6103c0610943565b8152602001906001900390816103b85790505b50905060008090505b6000805490508110156106285760008082815481106103f757fe5b906000526020600020906004020190508060405180608001604052908160008201548152602001600182018054600181600116156101000203166002900480601f0160208091040260200160405190810160405280929190818152602001828054600181600116156101000203166002900480156104b65780601f1061048b576101008083540402835291602001916104b6565b820191906000526020600020905b81548152906001019060200180831161049957829003601f168201915b50505050508152602001600282018054600181600116156101000203166002900480601f0160208091040260200160405190810160405280929190818152602001828054600181600116156101000203166002900480156105585780601f1061052d57610100808354040283529160200191610558565b820191906000526020600020905b81548152906001019060200180831161053b57829003601f168201915b50505050508152602001600382018054600181600116156101000203166002900480601f0160208091040260200160405190810160405280929190818152602001828054600181600116156101000203166002900480156105fa5780601f106105cf576101008083540402835291602001916105fa565b820191906000526020600020905b8154815290600101906020018083116105dd57829003601f168201915b50505050508152505083838151811061060f57fe5b60200260200101819052505080806001019150506103dc565b508091505090565b6000808054809190600101610645919061096b565b508460006001600080549050038154811061065c57fe5b9060005260206000209060040201600001819055508360006001600080549050038154811061068757fe5b906000526020600020906004020160010190805190602001906106ab92919061099d565b50826000600160008054905003815481106106c257fe5b906000526020600020906004020160020190805190602001906106e692919061099d565b50816000600160008054905003815481106106fd57fe5b9060005260206000209060040201600301908051906020019061072192919061099d565b506000805490509050949350505050565b6000818154811061073f57fe5b9060005260206000209060040201600091509050806000015490806001018054600181600116156101000203166002900480601f0160208091040260200160405190810160405280929190818152602001828054600181600116156101000203166002900480156107f15780601f106107c6576101008083540402835291602001916107f1565b820191906000526020600020905b8154815290600101906020018083116107d457829003601f168201915b505050505090806002018054600181600116156101000203166002900480601f01602080910402602001604051908101604052809291908181526020018280546001816001161561010002031660029004801561088f5780601f106108645761010080835404028352916020019161088f565b820191906000526020600020905b81548152906001019060200180831161087257829003601f168201915b505050505090806003018054600181600116156101000203166002900480601f01602080910402602001604051908101604052809291908181526020018280546001816001161561010002031660029004801561092d5780601f106109025761010080835404028352916020019161092d565b820191906000526020600020905b81548152906001019060200180831161091057829003601f168201915b5050505050905084565b60008080549050905090565b6040518060800160405280600081526020016060815260200160608152602001606081525090565b815481835581811115610998576004028160040283600052602060002091820191016109979190610a1d565b5b505050565b828054600181600116156101000203166002900490600052602060002090601f016020900481019282601f106109de57805160ff1916838001178555610a0c565b82800160010185558215610a0c579182015b82811115610a0b5782518255916020019190600101906109f0565b5b509050610a199190610a74565b5090565b610a7191905b80821115610a6d57600080820160009055600182016000610a449190610a99565b600282016000610a549190610a99565b600382016000610a649190610a99565b50600401610a23565b5090565b90565b610a9691905b80821115610a92576000816000905550600101610a7a565b5090565b90565b50805460018160011615610100020316600290046000825580601f10610abf5750610ade565b601f016020900490600052602060002090810190610add9190610a74565b5b50565b600082601f830112610af257600080fd5b8135610b05610b0082610eff565b610ed2565b91508082526020830160208301858383011115610b2157600080fd5b610b2c838284610fa6565b50505092915050565b600081359050610b4481610ff9565b92915050565b600060208284031215610b5c57600080fd5b6000610b6a84828501610b35565b91505092915050565b60008060008060808587031215610b8957600080fd5b6000610b9787828801610b35565b945050602085013567ffffffffffffffff811115610bb457600080fd5b610bc087828801610ae1565b935050604085013567ffffffffffffffff811115610bdd57600080fd5b610be987828801610ae1565b925050606085013567ffffffffffffffff811115610c0657600080fd5b610c1287828801610ae1565b91505092959194509250565b6000610c2a8383610d52565b905092915050565b6000610c3d82610f3b565b610c478185610f69565b935083602082028501610c5985610f2b565b8060005b85811015610c955784840389528151610c768582610c1e565b9450610c8183610f5c565b925060208a01995050600181019050610c5d565b50829750879550505050505092915050565b6000610cb282610f51565b610cbc8185610f8b565b9350610ccc818560208601610fb5565b610cd581610fe8565b840191505092915050565b6000610ceb82610f46565b610cf58185610f7a565b9350610d05818560208601610fb5565b610d0e81610fe8565b840191505092915050565b6000610d2482610f46565b610d2e8185610f8b565b9350610d3e818560208601610fb5565b610d4781610fe8565b840191505092915050565b6000608083016000830151610d6a6000860182610dc3565b5060208301518482036020860152610d828282610ce0565b91505060408301518482036040860152610d9c8282610ce0565b91505060608301518482036060860152610db68282610ce0565b9150508091505092915050565b610dcc81610f9c565b82525050565b610ddb81610f9c565b82525050565b60006020820190508181036000830152610dfb8184610c32565b905092915050565b6000602082019050610e186000830184610dd2565b92915050565b6000608082019050610e336000830187610dd2565b8181036020830152610e458186610ca7565b90508181036040830152610e598185610ca7565b90508181036060830152610e6d8184610ca7565b905095945050505050565b6000608082019050610e8d6000830187610dd2565b8181036020830152610e9f8186610d19565b90508181036040830152610eb38185610d19565b90508181036060830152610ec78184610d19565b905095945050505050565b6000604051905081810181811067ffffffffffffffff82111715610ef557600080fd5b8060405250919050565b600067ffffffffffffffff821115610f1657600080fd5b601f19601f8301169050602081019050919050565b6000819050602082019050919050565b600081519050919050565b600081519050919050565b600081519050919050565b6000602082019050919050565b600082825260208201905092915050565b600082825260208201905092915050565b600082825260208201905092915050565b6000819050919050565b82818337600083830152505050565b60005b83811015610fd3578082015181840152602081019050610fb8565b83811115610fe2576000848401525b50505050565b6000601f19601f8301169050919050565b61100281610f9c565b811461100d57600080fd5b5056fea365627a7a7231582018a0809fe3f8d21c46e57f0b0f60ad6ed7c9df54a16d03f24e991bc6b901c17e6c6578706572696d656e74616cf564736f6c63430005100040",
  "source": "pragma solidity ^0.5.0;\r\npragma experimental ABIEncoderV2;\r\n\r\ncontract SimpleStorage {  \r\n  struct CrimeDetails {\r\n        uint crime_id;\r\n        string timestamp;\r\n        string offense_code;\r\n        string description;        \r\n    }\r\n    \r\n    CrimeDetails[] public crime;    \r\n\r\n    function addCrimeReport(uint _crime_id, string memory _timestamp, string memory _offense_code, string memory _description) public returns(uint) {\r\n        crime.length++;\r\n        crime[crime.length-1].crime_id = _crime_id;\r\n        crime[crime.length-1].timestamp = _timestamp;\r\n        crime[crime.length-1].offense_code = _offense_code;\r\n        crime[crime.length-1].description = _description;\r\n        return crime.length;        \r\n    }\r\n    \r\n    function getCrimeCount() public view returns(uint) {\r\n        return crime.length;\r\n    }\r\n    \r\n    function getCrimeBlock(uint index) public view returns (uint, string memory, string memory, string memory)\r\n    {\r\n        return (crime[index].crime_id, crime[index].timestamp, crime[index].offense_code, crime[index].description);\r\n    }\r\n    function getAllCrimeDetails() public view returns (CrimeDetails[] memory)\r\n    {\r\n        CrimeDetails[] memory id = new CrimeDetails[](crime.length);\r\n        for (uint i = 0; i < crime.length; i++) {\r\n            CrimeDetails storage tempCrime = crime[i];\r\n            id[i] = tempCrime;\r\n        }\r\n        return id;\r\n    }\r\n}\r\n",
  "sourcePath": "D:\\BCT IA\\Crime-Records-Blockchain\\contracts\\SimpleStorage.sol",
  "compiler": {
    "name": "solc",
    "version": "0.5.16+commit.9c3226ce.Emscripten.clang"
  },
  "schemaVersion": "3.4.10",
  "updatedAt": "2022-10-07T19:09:54.641Z",
  "networkType": "ethereum",
  "devdoc": {
    "methods": {}
  },
  "userdoc": {
    "methods": {}
  }
}